:020000040800F2
:1000000000000220951D0008451B00084D1B00083C
:10001000551B00085D1B0008651B00080000000060
:100020000000000000000000000000006D1B000840
:100030007B1B000800000000891B0008971B0008BC
:10004000E51D0008E51D0008E51D0008E51D000888
:10005000E51D0008E51D0008E51D0008E51D000878
:10006000E51D0008E51D0008E51D0008E51D000868
:10007000E51D0008E51D0008E51D0008E51D000858
:10008000E51D0008E51D0008E51D0008E51D000848
:10009000E51D0008E51D0008E51D0008E51D000838
:1000A000E51D0008E51D0008E51D0008E51D000828
:1000B000E51D0008E51D0008A51B0008E51D00085A
:1000C000E51D0008E51D0008E51D0008E51D000808
:1000D000E51D0008E51D0008E51D0008E51D0008F8
:1000E000E51D0008E51D0008E51D0008E51D0008E8
:1000F000E51D0008E51D0008E51D0008E51D0008D8
:10010000E51D0008E51D0008E51D0008E51D0008C7
:10011000E51D0008E51D0008E51D0008E51D0008B7
:10012000E51D0008E51D0008E51D0008E51D0008A7
:10013000E51D0008E51D0008E51D0008E51D000897
:10014000E51D0008E51D0008E51D0008E51D000887
:10015000E51D0008E51D0008E51D0008E51D000877
:10016000E51D0008E51D0008E51D0008E51D000867
:10017000E51D0008E51D0008E51D00080000000061
:08018000E51D0008E51D000863
:1001900010B5054C237833B9044B13B10448AFF3C1
:1001A00000800123237010BD3001002000000000FA
:1001B0008854010808B5034B1BB103490348AFF34A
:1001C000008008BD000000003401002088540108B0
:1001D00047F63003038002230A0F090130323A2A1E
:1001E00000D30732C25201330A2BF5D170470029E0
:1001F00009DA00B52D2202700130C1F1000100F0D2
:1002000002F8013000BD30B54FF0000505604560D3
:1002100085600E4BA3FB0143DC0822000A2304FB8C
:1002200003F40C1B44F030044453013511460029FB
:10023000EFD120B4013D445D425C4255445401314C
:10024000013D8D4200D0F6DC31BD0000CDCCCCCCE0
:1002500010F8012B11F8013B012A28BF9A42F7D070
:10026000D01A7047034613F8012B002AFBD1181A45
:10027000013870470000000000000000000000008E
:1002800001F0FF01102A2BDB10F0070F08D010F847
:10029000013B013A8B422DD010F0070F42B3F6D14B
:1002A000F0B441EA012141EA014122F007047FF064
:1002B00000070023F0E80256083C85EA010586EABB
:1002C000010685FA47F5A3FA87F586FA47F6A5FAF7
:1002D00087F68EB9EED1F0BC01F0FF0102F0070203
:1002E00032B110F8013B013A83EA010313B1F8D1AE
:1002F0000020704701387047002D06BF354603388F
:10030000073815F0010F07D1013015F4807F02BFC7
:10031000013015F4C03F0130F0BC0138704700BF18
:1003200081F0004102E000BF83F0004330B54FEAA6
:1003300041044FEA430594EA050F08BF90EA020F13
:100340001FBF54EA000C55EA020C7FEA645C7FEAA6
:10035000655C00F0E2804FEA5454D4EB5555B8BFC9
:100360006D420CDD2C4480EA020281EA030382EA3A
:10037000000083EA010180EA020281EA0303362DCC
:1003800088BF30BD11F0004F4FEA01314FF4801C9F
:100390004CEA113102D0404261EB410113F0004FB1
:1003A0004FEA03334CEA133302D0524263EB430368
:1003B00094EA050F00F0A780A4F10104D5F1200E06
:1003C0000DDB02FA0EFC22FA05F2801841F1000161
:1003D00003FA0EF2801843FA05F359410EE0A5F135
:1003E00020050EF1200E012A03FA0EFC28BF4CF066
:1003F000020C43FA05F3C01851EBE37101F000451C
:1004000007D54FF0000EDCF1000C7EEB00006EEB28
:100410000101B1F5801F1BD3B1F5001F0CD34908B2
:100420005FEA30004FEA3C0C04F101044FEA445209
:1004300012F5800F80F09A80BCF1004F08BF5FEA90
:10044000500C50F1000041EB045141EA050130BD70
:100450005FEA4C0C404141EB0101013C28BFB1F582
:10046000801FE9D291F0000F04BF01460020B1FACD
:1004700081F308BF2033A3F10B03B3F120020CDAA0
:100480000C3208DD02F1140CC2F10C0201FA0CF07E
:1004900021FA02F10CE002F11402D8BFC2F1200CE3
:1004A00001FA02F120FA0CFCDCBF41EA0C01904099
:1004B000E41AA2BF01EB0451294330BD6FEA0404E2
:1004C0001F3C1CDA0C340EDC04F11404C4F12002CD
:1004D00020FA04F001FA02F340EA030021FA04F3DF
:1004E00045EA030130BDC4F10C04C4F1200220FA36
:1004F00002F001FA04F340EA0300294630BD21FA74
:1005000004F0294630BD94F0000F83F4801306BF39
:1005100081F480110134013D4EE77FEA645C18BF2D
:100520007FEA655C29D094EA050F08BF90EA020FC4
:1005300005D054EA000C04BF1946104630BD91EABC
:10054000030F1EBF0021002030BD5FEA545C05D1BF
:100550004000494128BF41F0004130BD14F58004FE
:100560003CBF01F5801130BD01F0004545F0FE4172
:1005700041F470014FF0000030BD7FEA645C1ABFA7
:10058000194610467FEA655C1CBF0B46024650EADE
:10059000013406BF52EA033591EA030F41F400210A
:1005A00030BD00BF90F0000F04BF0021704730B590
:1005B0004FF4806404F132044FF000054FF0000165
:1005C00050E700BF90F0000F04BF0021704730B526
:1005D0004FF4806404F1320410F0004548BF4042FB
:1005E0004FF000013EE700BF42004FEAE2014FEA50
:1005F00031014FEA02701FBF12F07F4393F07F4F2B
:1006000081F06051704732F07F4208BF704793F02D
:100610007F4F04BF41F40021704730B54FF4607440
:1006200001F0004521F000411CE700BF50EA010243
:1006300008BF704730B54FF000050AE050EA0102EC
:1006400008BF704730B511F0004502D5404261EB5C
:1006500041014FF4806404F132045FEA915C3FF49D
:10066000D8AE4FF003025FEADC0C18BF03325FEA3A
:10067000DC0C18BF033202EBDC02C2F1200300FAEB
:1006800003FC20FA02F001FA03FE40EA0E0021FA10
:1006900002F11444BDE600BF70B54FF0FF0C4CF4FE
:1006A000E06C1CEA11541DBF1CEA135594EA0C0FB0
:1006B00095EA0C0F00F0DEF82C4481EA030621EAEB
:1006C0004C5123EA4C5350EA013518BF52EA033526
:1006D00041F4801143F4801338D0A0FB02CE4FF0D8
:1006E0000005E1FB02E506F00042E0FB03E54FF008
:1006F0000006E1FB03569CF0000F18BF4EF0010E00
:10070000A4F1FF04B6F5007F64F5407404D25FEAFB
:100710004E0E6D4146EB060642EAC62141EA5551AE
:100720004FEAC52040EA5E504FEACE2EB4F1FD0CF0
:1007300088BFBCF5E06F1ED8BEF1004F08BF5FEA6E
:10074000500E50F1000041EB045170BD06F0004620
:1007500046EA010140EA020081EA0301B4EB5C04CD
:10076000C2BFD4EB0C0541EA045170BD41F48011C5
:100770004FF0000E013C00F3AB8014F1360FDEBFEA
:10078000002001F0004170BDC4F10004203C35DAC6
:100790000C341BDC04F11404C4F1200500FA05F349
:1007A00020FA04F001FA05F240EA020001F00042EA
:1007B00021F0004110EBD37021FA04F642EB060160
:1007C0005EEA430E08BF20EAD37070BDC4F10C048A
:1007D000C4F1200500FA04F320FA05F001FA04F24E
:1007E00040EA020001F0004110EBD37041F100013A
:1007F0005EEA430E08BF20EAD37070BDC4F1200545
:1008000000FA05F24EEA020E20FA04F301FA05F2AC
:1008100043EA020321FA04F001F0004121FA04F254
:1008200020EA020000EBD3705EEA430E08BF20EA24
:10083000D37070BD94F0000F0FD101F0004640005E
:1008400041EB010111F4801F08BF013CF7D041EAE0
:10085000060195F0000F18BF704703F000465200E4
:1008600043EB030313F4801F08BF013DF7D043EAB5
:100870000603704794EA0C0F0CEA135518BF95EA6B
:100880000C0F0CD050EA410618BF52EA4306D1D1F2
:1008900081EA030101F000414FF0000070BD50EA11
:1008A000410606BF1046194652EA430619D094EA9B
:1008B0000C0F02D150EA013613D195EA0C0F05D185
:1008C00052EA03361CBF104619460AD181EA0301D9
:1008D00001F0004141F0FE4141F470014FF0000091
:1008E00070BD41F0FE4141F4780170BD70B54FF02C
:1008F000FF0C4CF4E06C1CEA11541DBF1CEA1355AC
:1009000094EA0C0F95EA0C0F00F0A7F8A4EB05048D
:1009100081EA030E52EA03354FEA013100F0888084
:100920004FEA03334FF0805545EA131343EA12634D
:100930004FEA022245EA111545EA10654FEA002602
:100940000EF000419D4208BF964244F1FD0404F5BB
:10095000407402D25B084FEA3202B61A65EB030517
:100960005B084FEA32024FF480104FF4002CB6EBD4
:10097000020E75EB030E22BFB61A754640EA0C0054
:100980005B084FEA3202B6EB020E75EB030E22BF94
:10099000B61A754640EA5C005B084FEA3202B6EBD5
:1009A000020E75EB030E22BFB61A754640EA9C0094
:1009B0005B084FEA3202B6EB020E75EB030E22BF64
:1009C000B61A754640EADC0055EA060E18D04FEA22
:1009D000051545EA16754FEA06164FEAC30343EAC2
:1009E00052734FEAC2025FEA1C1CC0D111F4801F8F
:1009F0000BD141EA00014FF000004FF0004CB6E788
:100A000011F4801F04BF01430020B4F1FD0C88BF26
:100A1000BCF5E06F3FF6AFAEB5EB030C04BFB6EB31
:100A2000020C5FEA500C50F1000041EB045170BD24
:100A30000EF0004E4EEA113114EB5C04C2BFD4EB51
:100A40000C0541EA045170BD41F480114FF0000ED5
:100A5000013C90E645EA060E8DE60CEA135594EA51
:100A60000C0F08BF95EA0C0F3FF43BAF94EA0C0F54
:100A70000AD150EA01347FF434AF95EA0C0F7FF4C9
:100A800025AF104619462CE795EA0C0F06D152EA1D
:100A900003353FF4FDAE1046194622E750EA410601
:100AA00018BF52EA43067FF4C5AE50EA41047FF412
:100AB0000DAF52EA43057FF4EBAE12E74FF0FF3C77
:100AC00006E000BF4FF0010C02E000BF4FF0010C48
:100AD0004DF804CD4FEA410C7FEA6C5C4FEA430CC1
:100AE00018BF7FEA6C5C1BD001B050EA410C0CBF10
:100AF00052EA430C91EA030F02BF90EA020F002072
:100B0000704710F1000F91EA030F58BF994208BFD8
:100B100090422CBFD8176FEAE37040F00100704795
:100B20004FEA410C7FEA6C5C02D150EA013C07D1EC
:100B30004FEA430C7FEA6C5CD6D152EA033CD3D037
:100B40005DF8040B704700BF8446104662468C4631
:100B50001946634600E000BF01B5FFF7B7FF002864
:100B600048BF10F1000F01BD4DF808EDFFF7F4FF8D
:100B70000CBF012000205DF808FB00BF4DF808ED18
:100B8000FFF7EAFF34BF012000205DF808FB00BF3B
:100B90004DF808EDFFF7E0FF94BF012000205DF85D
:100BA00008FB00BF4DF808EDFFF7CEFF94BF012012
:100BB00000205DF808FB00BF4DF808EDFFF7C4FF0B
:100BC00034BF012000205DF808FB00BF4FEA410C54
:100BD0007FEA6C5C02D150EA013C0AD14FEA430C37
:100BE0007FEA6C5C02D152EA033C02D14FF0000074
:100BF00070474FF0010070474FEA410212F50012B2
:100C000015D211D56FF47873B3EB625212D94FEA53
:100C1000C12343F0004343EA505311F0004F23FA3D
:100C200002F018BF404270474FF00000704750EA92
:100C3000013005D111F0004008BF6FF0004070474F
:100C40004FF00000704700BF4FEA4102B2F1E043AD
:100C500024BFB3F5001CDCF1FE5C0DD901F0004CA3
:100C60004FEAC0024CEA5070B2F1004F40EB8300F3
:100C700008BF20F00100704711F0804F21D113F11F
:100C80003872BCBF01F00040704741F480114FEA58
:100C90005252C2F11802C2F1200C10FA0CF320FAE1
:100CA00002F018BF40F001004FEAC1234FEAD323FE
:100CB00003FA0CFC40EA0C0023FA02F34FEA430368
:100CC000CCE77FEA625307D150EA01331EBF4FF0F1
:100CD000FE4040F44000704701F0004040F0FE400C
:100CE00040F40000704700BF7BB972B90029BEBF55
:100CF00000204FF0004106E008BF00281CBF6FF045
:100D000000414FF0FF3000F0D3B9ADF1080C6DE9B0
:100D100004CE002909DB002B1ADB00F04DF8DDF8CA
:100D200004E0DDE9022304B07047404261EB410179
:100D3000002B1BDB00F040F8DDF804E0DDE90223C6
:100D400004B0404261EB4101524263EB4303704700
:100D5000524263EB430300F02FF8DDF804E0DDE9D5
:100D6000022304B0404261EB41017047524263EB01
:100D7000430300F021F8DDF804E0DDE9022304B0CC
:100D8000524263EB4303704753B94AB9002908BF85
:100D900000281CBF4FF0FF314FF0FF3000F088B942
:100DA000ADF1080C6DE904CE00F006F8DDF804E0C2
:100DB000DDE9022304B070472DE9F047089D8E4617
:100DC00004468846002B4AD18A42174662D9B2FAB5
:100DD00082F64EB1C6F1200301FA06F820FA03F3B9
:100DE000B74043EA0808B4404FEA174E1FFA87FCA1
:100DF000B8FBFEF1230C0EFB118843EA084301FB0C
:100E00000CF29A4209D9FB1801F1FF3080F0EA8018
:100E10009A4240F2E78002393B449A1AA3B2B2FBED
:100E2000FEF00EFB102243EA024300FB0CFC9C4543
:100E300009D9FB1800F1FF3280F0D6809C4540F2C2
:100E4000D3803B44023840EA0140A3EB0C0300216D
:100E50001DB1F3400022C5E90032BDE8F0878B42A6
:100E600005D90DB1C5E9000100210846F5E7B3FA3F
:100E700083F1002946D1734502D3824200F20581F5
:100E8000841A6EEB030201209046002DE5D0C5E9DF
:100E90000048E2E7002A00F09080B2FA82F6002EC5
:100EA00040F0A4808A1A030C4FEA174E80B2BCB2FD
:100EB0000121B2FBFEFC0EFB1C2243EA024304FBB1
:100EC0000CF29A4207D9FB180CF1FF3802D29A4271
:100ED00000F2E080C4469B1AB3FBFEF20EFB123315
:100EE00040EA034302FB04F49C4207D9FB1802F1D9
:100EF000FF3002D29C4200F2CA8002461B1B42EA2B
:100F00000C40A5E7C1F120068B4022FA06F71F43EB
:100F10000EFA01F420FA06F32EFA06FE4FEA1749FC
:100F2000234300FA01F81FFA87FCBEFBF9F01C0C02
:100F300009FB10EE44EA0E4400FB0CFEA64502FA43
:100F400001F209D93C1900F1FF3A80F09C80A645D6
:100F500040F2998002383C44A4EB0E041FFA83FE51
:100F6000B4FBF9F309FB13444EEA044403FB0CFC05
:100F7000A44508D93C1903F1FF3E80F08280A445C6
:100F80007FD9023B3C4443EA0040A4EB0C04A0FBA5
:100F900002EC64457346E14662D35FD05DB1B8EBC5
:100FA000030264EB090404FA06F622FA01F31E4375
:100FB000CC40C5E9006400214FE7B1FBF2FC010C15
:100FC00041EA0E4180B240EA01423B4638463C4687
:100FD000B846BE462026B1FBF7F1A2EB080241EA73
:100FE0000C4166E7014618E710462CE7C6F12002DF
:100FF0002EFA02F3B740B14020FA02F24FEA174E40
:101000000A43B3FBFEF8BCB20EFB1833110C41EAE5
:10101000034108FB04F9B04089454FEA104380B210
:101020003ED9791808F1FF3C01D289451FD8A1EBC0
:101030000901B1FBFEF909FB04F80EFB191192B28C
:1010400042EA0142424529D2BA1809F1FF31C4D21D
:101050004245C2D2A9F102013A44BEE7F0459DD211
:10106000BEEB02036CEB070C0138E14696E7A7EBF9
:1010700009094944A8F1020CB1FBFEF909FB04F887
:10108000DBE773467FE7504666E70846FDE63B44EC
:10109000023A33E7ACF1020C3B441CE749469CE7BB
:1010A000A1EB0901C446B1FBFEF909FB04F8C4E752
:1010B000704700BF80B582B000AF00F095FE00F031
:1010C0006DF800F025FA00F045F900F00FFB00F094
:1010D000E5F800F099F900F0CDF800F005F900F01E
:1010E000E1F90DF0EDFB0DF041FB264803F0E4F9CA
:1010F0000821254803F05EFA0221244802F0EAFAAA
:101100000346DAB2224B1A700321204802F0E2FAB9
:101110000346DAB21F4B1A700DF0D2F81A4B1B6857
:101120004FF6FF72DA630DF0C1FE10F0B7FB0DF061
:10113000C7FB194B1B78184610F01EFC07200CF05B
:1011400013FA4FF6FF737B6009E0012000F0BEFE4A
:101150000D4B1B687A68DA637B68203B7B607B6899
:10116000002BF2DC002010F055FB6F2000F0AEFEEB
:101170000EF0A4F80CF0FEFB0CF0DCFC0EF01CFBF7
:1011800000BFF9E71C020020D40100205C01002010
:10119000CF030020D10300205004002080B594B07C
:1011A00000AF07F1200330220021184611F09DFC0A
:1011B00007F10C0300221A605A609A60DA601A6123
:1011C0000023BB60294B1B6C284A43F080531364F7
:1011D000264B1B6C03F08053BB60BB6800237B6015
:1011E000234B1B68224A43F480431360204B1B6847
:1011F00003F480437B607B6805233B624FF48033BC
:101200007B620123BB620223BB634FF48003FB6359
:1012100004233B64A8237B640223BB640723FB6491
:1012200007F12003184601F055F90346002B01D0C1
:1012300000F0D6FA0F23FB6002233B6100237B61A1
:101240004FF4A053BB614FF48053FB6107F10C03D3
:101250000521184601F0B6FB0346002B01D000F033
:10126000BFFA00BF5037BD4680BD00BF0038024006
:101270000070004080B500AF064B074A1A60054871
:1012800001F06EFE0346002B01D000F0A9FA00BF6A
:1012900080BD00BF4C0100200008065080B500AFA3
:1012A0000F4B104A1A600E4B00225A600C4B7F22E3
:1012B0009A600B4BFF22DA60094B00221A61084B3F
:1012C00000225A61064B00229A61054801F0DDFEBA
:1012D0000346002B01D000F083FA00BF80BD00BFA1
:1012E0005C0100200028004080B500AF174B184A71
:1012F0001A60164B4FF482725A60144B00229A60A7
:10130000124B0022DA60114B00221A610F4B0022AF
:101310005A610E4B4FF400729A610C4B0022DA6155
:101320000A4B00221A62094B00225A62074B002224
:101330009A62064B0A22DA62044802F0E3F9034695
:10134000002B01D000F04CFA00BF80BD7C010020D2
:101350000038004080B58AB000AF07F120030022BA
:101360001A605A603B1D00221A605A609A60DA6067
:101370001A615A619A61224B224A1A60204B00225C
:101380005A601F4B00229A601D4B4FF6FF72DA60C5
:101390001B4B00221A611A4B00229A61184803F075
:1013A000BAF80346002B01D000F01AFA00233B6282
:1013B00000237B6207F120031946114803F084FFE4
:1013C0000346002B01D000F00BFA60237B60002362
:1013D000BB600023FB6000237B613B1D0822194694
:1013E000074803F09FFA0346002B01D000F0F8F9FC
:1013F000034800F017FB00BF2837BD4680BD00BF83
:10140000D40100200004004080B586B000AF07F191
:10141000080300221A605A609A60DA603B46002294
:101420001A605A601D4B1E4A1A601C4B42F2CF02D2
:101430005A601A4B00229A60184B41F28732DA60E8
:10144000164B00221A61154B00229A61134802F0D4
:1014500073FF0346002B01D000F0C2F94FF4805314
:10146000BB6007F1080319460C4803F01DFB034657
:10147000002B01D000F0B4F900233B6000237B6017
:101480003B461946054803F01FFF0346002B01D0D9
:1014900000F0A6F900BF1837BD4680BD1C02002031
:1014A0000008004080B582B000AF3B4600221A60C1
:1014B0005A60154B154A1A60134B42F2CF025A601C
:1014C000114B00229A60104B4FF6FF72DA600E4B00
:1014D00000229A610C4802F02FFF0346002B01D036
:1014E00000F07EF900233B6000237B603B461946F9
:1014F000054803F0E9FE0346002B01D000F070F927
:1015000000BF0837BD4680BD6402002000100040C7
:1015100080B58CB000AF07F11C0300221A605A603E
:101520009A60DA601A610023BB616B4B1B6B6A4ADD
:1015300043F010031363684B1B6B03F01003BB6194
:10154000BB6900237B61644B1B6B634A43F004035C
:101550001363614B1B6B03F004037B617B69002306
:101560003B615D4B1B6B5C4A43F0800313635A4B3A
:101570001B6B03F080033B613B690023FB60564B10
:101580001B6B554A43F001031363534B1B6B03F072
:101590000103FB60FB680023BB604F4B1B6B4E4A93
:1015A00043F0020313634C4B1B6B03F00203BB605D
:1015B000BB6800237B60484B1B6B474A43F0080322
:1015C0001363454B1B6B03F008037B607B680122B0
:1015D0002021424800F064FF00220221404800F030
:1015E0005FFF012241F204013D4800F059FF002253
:1015F00002213C4800F054FF0523FB6100233B62BD
:1016000000237B6207F11C031946364800F094FD65
:101610000223FB6100233B6202237B6207F11C0370
:1016200019462E4800F088FD0123FB6100233B6230
:1016300002237B6207F11C0319462B4800F07CFD56
:101640002023FB6101233B6200237B620023BB62FA
:1016500007F11C031946214800F06EFD0223FB61CF
:1016600001233B6200237B620323BB6207F11C035F
:1016700019461B4800F060FD0423FB6101233B6217
:1016800000237B620223BB6207F11C031946144846
:1016900000F052FD4FF48053FB6101233B620023B5
:1016A0007B620023BB6207F11C0319460C4800F063
:1016B00043FD0223FB6101233B6200237B62032382
:1016C000BB6207F11C031946064800F035FD00BF58
:1016D0003037BD4680BD00BF0038024000080240E0
:1016E00000040240001002400000024080B58EB0AD
:1016F00000AF07F11C0300221A605A609A60DA609A
:101700001A615A619A613B4600221A605A609A60D7
:10171000DA601A615A619A612F4B4FF020421A60C9
:101720002D4B2E4A5A602C4B00229A602A4B0022E5
:10173000DA60294B00221A61274B10225A61264B8E
:1017400000229A61244B0022DA61234B00221A62A4
:10175000214B00225A62204B4FF480529A621E4B5A
:101760000022DA621C4B4FF480421A631A4B0022AB
:101770005A63194B00229A63174B00225A640F23B5
:10178000FB610F233B623C237B620023BB6210237F
:10179000FB6211233B6300237B6304233B600F2325
:1017A0007B600523BB600023FB6010233B6111239A
:1017B0007B610023BB613A4607F11C0319460648CA
:1017C00002F072FD0346002B01D000F009F800BFC3
:1017D0003837BD4680BD00BFAC020020040100A028
:1017E00080B400AF72B600BF00BFFDE780B483B025
:1017F00000AF00237B60104B5B6C0F4A43F48043C7
:1018000053640D4B5B6C03F480437B607B68002367
:101810003B60094B1B6C084A43F080531364064B32
:101820001B6C03F080533B603B6800BF0C37BD4628
:101830005DF8047B704700BF0038024080B485B07B
:1018400000AF78607B681B680B4A93420DD1002380
:10185000FB600A4B5B6B094A43F040035363074B41
:101860005B6B03F04003FB60FB6800BF1437BD46B1
:101870005DF8047B704700BF000806500038024046
:1018800080B586B000AF786007F1080300221A60C7
:101890005A609A60DA607B681B680C4A934211D1E7
:1018A0000223BB604FF480737B6107F10803184685
:1018B00001F074FA0346002B01D0FFF791FF044BAF
:1018C00001221A6000BF1837BD4680BD00280040C5
:1018D0003C0E474280B58AB000AF786007F1140330
:1018E00000221A605A609A60DA601A617B681B688D
:1018F000194A93422CD100233B61184B1B6C174AA9
:1019000043F480431364154B1B6C03F480433B6129
:101910003B690023FB60114B1B6B104A43F0020331
:1019200013630E4B1B6B03F00203FB60FB684FF469
:1019300060437B610223BB610023FB6103233B62A5
:1019400005237B6207F114031946054800F0F4FBF8
:1019500000BF2837BD4680BD003800400038024037
:101960000004024080B485B000AF78607B681B68DB
:101970000B4A93420DD10023FB600A4B1B6C094AB2
:1019800043F002031364074B1B6C03F00203FB607C
:10199000FB6800BF1437BD465DF8047B704700BF8D
:1019A000000400400038024080B584B000AF786089
:1019B0007B681B68184A934216D10023FB60174BC3
:1019C0001B6C164A43F004031364144B1B6C03F0A6
:1019D0000403FB60FB68002200211E2000F075FB61
:1019E0001E2000F08EFB12E07B681B680C4A9342BD
:1019F0000DD10023BB60094B1B6C084A43F0100358
:101A00001364064B1B6C03F01003BB60BB6800BF84
:101A10001037BD4680BD00BF0008004000380240BE
:101A20000010004080B588B000AF786007F10C036B
:101A300000221A605A609A60DA601A617B681B683B
:101A4000124A93421DD10023BB60114B1B6B104AFD
:101A500043F0020313630E4B1B6B03F00203BB60E6
:101A6000BB680123FB6002233B6100237B610023F1
:101A7000BB610223FB6107F10C031946054800F026
:101A80005BFB00BF2037BD4680BD00BF00040040A7
:101A9000003802400004024080B586B000AF3B1D14
:101AA00000221A605A609A60DA601A611C4B1B6847
:101AB000002B31D11A4B01221A6000233B60194BD5
:101AC0009B6B184A43F001039363164B9B6B03F027
:101AD00001033B603B684FF680737B600223BB6071
:101AE0000023FB6003233B610C237B613B1D1946F4
:101AF0000D4800F021FB4EF2B3737B600223BB6004
:101B00000023FB6003233B610C237B613B1D1946D3
:101B1000064800F011FB00E000BF1837BD4680BD4D
:101B20001C0300200038024000100240000C02405C
:101B300080B582B000AF7860FFF7AEFF00BF083716
:101B4000BD4680BD80B400AF00BFFDE780B400AFEC
:101B500000BFFDE780B400AF00BFFDE780B400AF79
:101B600000BFFDE780B400AF00BFFDE780B400AF69
:101B700000BFBD465DF8047B704780B400AF00BF76
:101B8000BD465DF8047B704780B400AF00BFBD4622
:101B90005DF8047B704780B500AF00F077F900BFB7
:101BA00080BD000080B500AF0C4802F0CBFD0B48B3
:101BB00002F082FC0A4B1B68094A23F00103136000
:101BC00000230C221E219E2003F08EFD00230C22F8
:101BD00048219E2003F088FD00BF80BD1C0200202C
:101BE0000008004080B400AF01231846BD465DF8F0
:101BF000047B704780B582B000AF7860396011F027
:101C000013FE034616221A604FF0FF3318460837BA
:101C1000BD4680BD80B582B000AF78604FF0FF3127
:101C20007868FFF7E7FF00BFFDE780B586B000AF3B
:101C3000F860B9607A6000237B610AE0AFF300804E
:101C40000146BB685A1CBA60CAB21A707B6901337C
:101C50007B617A697B689A42F0DB7B6818461837AB
:101C6000BD4680BD80B586B000AFF860B9607A60CF
:101C700000237B6109E0BB685A1CBA601B781846D8
:101C8000AFF300807B6901337B617A697B689A429C
:101C9000F1DB7B6818461837BD4680BD80B483B041
:101CA00000AF78604FF0FF3318460C37BD465DF843
:101CB000047B704780B483B000AF786039603B68C4
:101CC0004FF400525A60002318460C37BD465DF8A9
:101CD000047B704780B483B000AF7860012318465E
:101CE0000C37BD465DF8047B704780B485B000AF0B
:101CF000F860B9607A60002318461437BD465DF875
:101D0000047B704780B586B000AF7860144A154BED
:101D1000D31A7B617B693B61134B1B68002B02D19B
:101D2000114B124A1A60104B1A687B6813443A69C7
:101D30009A4207D211F078FD03460C221A604FF048
:101D4000FF3309E0084B1B68FB60074B1A687B6890
:101D50001344054A1360FB6818461837BD4680BD1A
:101D6000000002200008000024030020281A0020A0
:101D700080B400AF064BD3F88830054A43F47003B3
:101D8000C2F8883000BFBD465DF8047B704700BFD5
:101D900000ED00E0DFF834D0FFF7EAFF0C480D4912
:101DA0000D4A002302E0D458C4500433C4188C42B6
:101DB000F9D30A4A0A4C002301E013600432A2421C
:101DC000FBD311F037FDFFF775F9704700000220D3
:101DD0000000002030010020C07A030830010020FC
:101DE000241A0020FEE7000080B500AF0E4B1B68F0
:101DF0000D4A43F4007313600B4B1B680A4A43F40B
:101E000080631360084B1B68074A43F480731360B8
:101E1000032000F04FF90F2000F008F8FFF7E6FC70
:101E20000023184680BD00BF003C024080B582B050
:101E300000AF7860124B1A68124B1B7819464FF4AA
:101E40007A73B3FBF1F3B2FBF3F3184600F067F9D2
:101E50000346002B01D001230EE07B680F2B0AD82C
:101E6000002279684FF0FF3000F02FF9064A7B68B6
:101E70001360002300E0012318460837BD4680BDEB
:101E8000040000200C0000200800002080B400AFF7
:101E9000064B1B781A46064B1B681344044A136012
:101EA00000BFBD465DF8047B704700BF0C000020FA
:101EB0002803002080B400AF034B1B681846BD46C2
:101EC0005DF8047B704700BF2803002080B584B014
:101ED00000AF7860FFF7EEFFB8607B68FB60FB68DF
:101EE000B3F1FF3F05D00A4B1B781A46FB68134439
:101EF000FB6000BFFFF7DEFF0246BB68D31AFA683B
:101F00009A42F7D800BF00BF1037BD4680BD00BF62
:101F10000C00002080B485B000AF78607B6803F0CF
:101F20000703FB600C4BDB68BB60BA684FF6FF032E
:101F30001340BB60FB681A02BB68134343F0BF63E6
:101F400043F40033BB60044ABB68D36000BF14375E
:101F5000BD465DF8047B704700ED00E080B400AF43
:101F6000044BDB681B0A03F007031846BD465DF807
:101F7000047B704700ED00E080B483B000AF0346FF
:101F8000FB7197F90730002B0BDBFB7903F01F0285
:101F9000074997F907305B09012000FA02F241F87E
:101FA000232000BF0C37BD465DF8047B704700BF9F
:101FB00000E100E080B483B000AF03463960FB71FC
:101FC00097F90730002B0ADB3B68DAB20C4997F926
:101FD00007301201D2B20B4483F800230AE03B68B9
:101FE000DAB20849FB7903F00F03043B1201D2B2C5
:101FF0000B441A7600BF0C37BD465DF8047B704772
:1020000000E100E000ED00E080B489B000AFF860CE
:10201000B9607A60FB6803F00703FB61FB69C3F1F9
:102020000703042B28BF0423BB61FB690433062B81
:1020300002D9FB69033B00E000237B614FF0FF32D4
:10204000BB6902FA03F3DA43BB681A407B699A4022
:102050004FF0FF317B6901FA03F3D9437B680B40F2
:10206000134318462437BD465DF8047B70470000D3
:1020700080B582B000AF78607B68013BB3F1807FB0
:1020800001D301230FE00A4A7B68013B53600F2113
:102090004FF0FF30FFF78EFF054B00229A60044B94
:1020A00007221A60002318460837BD4680BD00BFCE
:1020B00010E000E080B582B000AF78607868FFF78C
:1020C00029FF00BF0837BD4680BD80B586B000AF90
:1020D0000346B9607A60FB7300237B61FFF73EFF24
:1020E00078617A68B9687869FFF78EFF024697F9D8
:1020F0000F3011461846FFF75DFF00BF1837BD4689
:1021000080BD80B582B000AF0346FB7197F9073000
:102110001846FFF731FF00BF0837BD4680BD80B5C8
:1021200082B000AF78607868FFF7A2FF03461846D8
:102130000837BD4680BD000080B489B000AF78602C
:10214000396000237B6100233B610023BB610023D6
:10215000FB616BE10122FB6902FA03F37B613B68DF
:102160001B687A6913403B613A697B699A4240F087
:102170005A813B685B6803F00303012B05D03B6881
:102180005B6803F00303022B30D17B689B68BB6163
:10219000FB695B00032202FA03F3DB43BA691340D5
:1021A000BB613B68DA68FB695B0002FA03F3BA695A
:1021B0001343BB617B68BA699A607B685B68BB61EB
:1021C0000122FB6902FA03F3DB43BA691340BB61E6
:1021D0003B685B681B0903F00102FB6902FA03F329
:1021E000BA691343BB617B68BA695A603B685B6834
:1021F00003F00303032B17D07B68DB68BB61FB692B
:102200005B00032202FA03F3DB43BA691340BB61AC
:102210003B689A68FB695B0002FA03F3BA691343EF
:10222000BB617B68BA69DA603B685B6803F00303F3
:10223000022B23D1FB69DA087B68083253F822307D
:10224000BB61FB6903F007039B000F2202FA03F353
:10225000DB43BA691340BB613B681A69FB6903F051
:1022600007039B0002FA03F3BA691343BB61FB69DE
:10227000DA087B680832B96943F822107B681B686A
:10228000BB61FB695B00032202FA03F3DB43BA691B
:102290001340BB613B685B6803F00302FB695B00B2
:1022A00002FA03F3BA691343BB617B68BA691A6027
:1022B0003B685B6803F44033002B00F0B4800023DC
:1022C000FB60604B5B6C5F4A43F4804353645D4B3F
:1022D0005B6C03F48043FB60FB685B4AFB699B0813
:1022E000023352F82330BB61FB6903F003039B0008
:1022F0000F2202FA03F3DB43BA691340BB617B6828
:10230000524A93422BD07B68514A934225D07B6836
:10231000504A93421FD07B684F4A934219D07B6842
:102320004E4A934213D07B684D4A93420DD07B684E
:102330004C4A934207D07B684B4A934201D1072312
:102340000EE008230CE006230AE0052308E004233E
:1023500006E0032304E0022302E0012300E000235F
:10236000FA6902F0030292009340BA691343BB6119
:102370003549FB699B080233BA6941F823203B4B7E
:102380009B68BB613B69DB43BA691340BB613B6837
:102390005B6803F48013002B03D0BA693B691343D5
:1023A000BB61324ABB699360304BDB68BB613B6900
:1023B000DB43BA691340BB613B685B6803F40013FD
:1023C000002B03D0BA693B691343BB61274ABB6941
:1023D000D360264B5B68BB613B69DB43BA69134042
:1023E000BB613B685B6803F40033002B03D0BA6920
:1023F0003B691343BB611D4ABB6953601B4B1B68A0
:10240000BB613B69DB43BA691340BB613B685B68F6
:1024100003F48033002B03D0BA693B691343BB61DB
:10242000124ABB691360FB690133FB61FB690F2B27
:102430007FF690AE00BF00BF2437BD465DF8047B39
:10244000704700BF003802400038014000000240E1
:102450000004024000080240000C0240001002404C
:102460000014024000180240001C0240003C0140E1
:1024700080B485B000AF78600B467B807B681A69BA
:102480007B881340002B02D00123FB7301E0002363
:10249000FB73FB7B18461437BD465DF8047B704721
:1024A00080B483B000AF78600B467B8013467B70AE
:1024B0007B78002B03D07A887B689A6103E07B8865
:1024C0001A047B689A6100BF0C37BD465DF8047B37
:1024D0007047000080B586B000AF78607B68002B45
:1024E00001D1012367E27B681B6803F00103002B25
:1024F00075D0884B9B6803F00C03042B0CD0854BE4
:102500009B6803F00C03082B12D1824B5B6803F429
:102510008003B3F5800F0BD17E4B1B6803F40033AF
:10252000002B5BD07B685B68002B57D1012342E214
:102530007B685B68B3F5803F06D1764B1B68754AB4
:1025400043F4803313601DE07B685B68B3F5A02F14
:102550000CD1704B1B686F4A43F4802313606D4BA2
:102560001B686C4A43F4803313600BE0694B1B68B3
:10257000684A23F480331360664B1B68654A23F472
:10258000802313607B685B68002B13D0FFF792FCFD
:10259000386108E0FFF78EFC02463B69D31A642BD2
:1025A00001D9032307E25B4B1B6803F40033002BC4
:1025B000F0D014E0FFF77EFC386108E0FFF77AFC0A
:1025C00002463B69D31A642B01D90323F3E1514B33
:1025D0001B6803F40033002BF0D100E000BF7B68E0
:1025E0001B6803F00203002B63D04A4B9B6803F087
:1025F0000C03002B0BD0474B9B6803F00C03082BFC
:102600001CD1444B5B6803F48003002B16D1414B73
:102610001B6803F00203002B05D07B68DB68012BED
:1026200001D00123C7E13B4B1B6823F0F8027B6814
:102630001B69DB00374913430B603AE07B68DB68BA
:10264000002B20D0344B01221A60FFF733FC386195
:1026500008E0FFF72FFC02463B69D31A022B01D991
:102660000323A8E12B4B1B6803F00203002BF0D0DF
:10267000284B1B6823F0F8027B681B69DB002549A7
:1026800013430B6015E0244B00221A60FFF712FC85
:10269000386108E0FFF70EFC02463B69D31A022BB3
:1026A00001D9032387E11B4B1B6803F00203002BB6
:1026B000F0D17B681B6803F00803002B36D07B68E1
:1026C0005B69002B16D0154B01221A60FFF7F2FB55
:1026D000386108E0FFF7EEFB02463B69D31A022B94
:1026E00001D9032367E10B4B5B6F03F00203002B5F
:1026F000F0D01BE0094B00221A60FFF7DBFB3861CA
:102700000EE0FFF7D7FB02463B69D31A022B07D92D
:10271000032350E10038024000004742800E474248
:10272000884B5B6F03F00203002BEAD17B681B68C8
:1027300003F00403002B00F097800023FB75814B0E
:102740001B6C03F08053002B0FD10023BB607D4B2B
:102750001B6C7C4A43F0805313647A4B1B6C03F070
:102760008053BB60BB680123FB75774B1B6803F488
:102770008073002B18D1744B1B68734A43F4807329
:102780001360FFF797FB386108E0FFF793FB024601
:102790003B69D31A022B01D903230CE16A4B1B6856
:1027A00003F48073002BF0D07B689B68012B06D16B
:1027B000644B1B6F634A43F0010313671CE07B68A3
:1027C0009B68052B0CD15F4B1B6F5E4A43F00403E3
:1027D00013675C4B1B6F5B4A43F0010313670BE00D
:1027E000584B1B6F574A23F001031367554B1B6F60
:1027F000544A23F0040313677B689B68002B15D0B1
:10280000FFF758FB38610AE0FFF754FB02463B69CB
:10281000D31A41F28832934201D90323CBE0494BCA
:102820001B6F03F00203002BEED014E0FFF742FB16
:1028300038610AE0FFF73EFB02463B69D31A41F2DA
:102840008832934201D90323B5E03E4B1B6F03F05E
:102850000203002BEED1FB7D012B05D1394B1B6C04
:10286000384A23F0805313647B689B69002B00F087
:10287000A180344B9B6803F00C03082B5CD07B6871
:102880009B69022B41D1314B00221A60FFF712FBEA
:10289000386108E0FFF70EFB02463B69D31A022BB2
:1028A00001D9032387E0274B1B6803F00073002B3B
:1028B000F0D17B68DA697B681B6A1A437B685B6AC4
:1028C0009B011A437B689B6A5B08013B1B041A430C
:1028D0007B68DB6A1B061B4913434B601B4B0122C1
:1028E0001A60FFF7E7FA386108E0FFF7E3FA0246FB
:1028F0003B69D31A022B01D903235CE0114B1B68FF
:1029000003F00073002BF0D054E0104B00221A604B
:10291000FFF7D0FA386108E0FFF7CCFA02463B69CE
:10292000D31A022B01D9032345E0064B1B6803F0A1
:102930000073002BF0D13DE07B689B69012B07D130
:10294000012338E000380240007000406000474238
:102950001B4B5B68FB607B689B69012B28D0FB6885
:1029600003F480027B68DB699A4221D1FB6803F0A3
:102970003F027B681B6A9A421AD1FA6847F6C07315
:1029800013407A68526A9201934211D1FB6803F4B2
:1029900040327B689B6A5B08013B1B049A4207D16B
:1029A000FB6803F070627B68DB6A1B069A4201D009
:1029B000012300E0002318461837BD4680BD00BF44
:1029C0000038024080B584B000AF786039607B6821
:1029D000002B01D10123CCE0684B1B6803F00703F7
:1029E0003A689A420CD9654B3A68D2B21A70634B76
:1029F0001B6803F007033A689A4201D00123B8E04C
:102A00007B681B6803F00203002B20D07B681B68E7
:102A100003F00403002B05D0594B9B68584A43F43C
:102A2000E05393607B681B6803F00803002B05D01C
:102A3000534B9B68524A43F460439360504B9B68EE
:102A400023F0F0027B689B684D4913438B607B68E1
:102A50001B6803F00103002B44D07B685B68012BEB
:102A600007D1474B1B6803F40033002B19D1012316
:102A70007FE07B685B68022B03D07B685B68032B7D
:102A800007D13F4B1B6803F00073002B09D10123D2
:102A90006FE03B4B1B6803F00203002B01D10123C5
:102AA00067E0374B9B6823F003027B685B6834491F
:102AB00013438B60FFF7FEF9F8600AE0FFF7FAF9BD
:102AC0000246FB68D31A41F28832934201D90323AC
:102AD0004FE02B4B9B6803F00C027B685B689B000C
:102AE0009A42EBD1254B1B6803F007033A689A42E0
:102AF0000CD2224B3A68D2B21A70204B1B6803F0FA
:102B000007033A689A4201D0012332E07B681B68D0
:102B100003F00403002B08D0194B9B6823F4E05208
:102B20007B68DB68164913438B607B681B6803F086
:102B30000803002B09D0124B9B6823F460427B688A
:102B40001B69DB000E4913438B6000F021F802463D
:102B50000B4B9B681B0903F00F030A49CB5C22FA5D
:102B600003F3094A1360094B1B681846FFF75EF927
:102B7000002318461037BD4680BD00BF003C024010
:102B800000380240485A01080400002008000020D4
:102B90002DE9B04F94B000AF00237B640023FB64A9
:102BA00000233B640023BB64794B9B6803F00C0358
:102BB000082B0DD0082B00F2E180002B02D0042B53
:102BC00003D0DBE0734BBB64DBE0734BBB64D8E04A
:102BD0006F4B5B6803F03F037B646D4B5B6803F4F2
:102BE0008003002B63D06A4B5B689B090022BB63A8
:102BF000FA63BB6BC3F308033B6300237B63D7E932
:102C00000C4522462B464FF000004FF000015901C1
:102C100041EAD261500102460B462146511A396100
:102C2000294663EB01037B614FF000024FF0000384
:102C3000D7E904AB59468B01514643EA91635146AB
:102C40008A015146B2EB0108594663EB01094FF086
:102C500000024FF000034FEAC90343EA58734FEAFA
:102C6000C80290469946234618EB0303BB602B46E7
:102C700049EB0303FB604FF000024FF00003D7E97C
:102C8000024529464B02214643EAD15321464A02D6
:102C9000104619467B6C0022BB62FA62D7E90A2310
:102CA000FEF772F802460B461346FB6458E0384BB9
:102CB0005B689B09002218461146C0F308033B627B
:102CC00000237B62D7E9088942464B464FF000005B
:102CD0004FF00001590141EAD261500102460B4612
:102CE0004146B2EB010A494663EB010B4FF000028B
:102CF0004FF000034FEA8B1343EA9A634FEA8A12BC
:102D0000B2EB0A0463EB0B054FF000024FF0000337
:102D1000EB0043EA5473E20014461D464346E318B1
:102D20003B604B4645EB03037B604FF000024FF0E6
:102D30000003D7E9004529468B02214643EA915317
:102D400021468A02104619467B6C0022BB61FA615B
:102D5000D7E90623FEF718F802460B461346FB6434
:102D60000B4B5B681B0C03F0030301335B003B64FC
:102D7000FA6C3B6CB2FBF3F3BB6402E0054BBB6443
:102D800000BFBB6C18465037BD46BDE8B08F00BFD2
:102D9000003802400024F40000127A0080B586B0AA
:102DA00000AF786000237B6100233B617B681B6878
:102DB00003F00103002B05D17B681B6803F00403BB
:102DC000002B35D0624B00221A60FFF773F8786150
:102DD00008E0FFF76FF802467B69D31A022B01D98E
:102DE0000323B0E05B4B1B6803F00063002BF0D1C2
:102DF0007B685B689A017B689B681B075549134396
:102E0000C1F88430524B01221A60FFF753F8786101
:102E100008E0FFF74FF802467B69D31A022B01D96D
:102E2000032390E04B4B1B6803F00063002BF0D0B2
:102E30007B681B6803F00203002B00F083800023F3
:102E4000FB60444B1B6C434A43F080531364414B7B
:102E50001B6C03F08053FB60FB683F4B1B683E4AD2
:102E600043F480731360FFF725F8786108E0FFF7FB
:102E700021F802467B69D31A022B01D9032362E0B1
:102E8000354B1B6803F48073002BF0D0314B1B6F64
:102E900003F440733B613B69002B2FD07B68DB68F8
:102EA00003F440733A699A4228D02A4B1B6F23F4EB
:102EB00040733B61294B01221A60284B00221A60A3
:102EC000244A3B691367234B1B6F03F00103012B5B
:102ED00014D1FEF7EFFF78610AE0FEF7EBFF024640
:102EE0007B69D31A41F28832934201D903232AE045
:102EF000184B1B6F03F00203002BEED07B68DB68DE
:102F000003F44073B3F5407F0DD1124B9B6823F45B
:102F1000F8127B68DB6823F0704323F440730D499B
:102F200013438B6005E00B4B9B680A4A23F4F813AC
:102F30009360084B1A6F7B68DB68C3F30B0305498A
:102F400013430B67002318461837BD4680BD00BFEA
:102F5000680047420038024000700040400E47427F
:102F600080B582B000AF78607B68002B01D101236F
:102F70001CE07B685B79DBB2002B05D17B6800220B
:102F80001A717868FEF75AFC7B6802225A717B68D6
:102F90001B681A687B681B6842F004021A607B6831
:102FA00001225A717B6800229A6000231846083774
:102FB000BD4680BD80B584B000AF78603960002325
:102FC000FB737B681B79012B01D1022344E07B68F2
:102FD00001221A717B685B79DBB2012B33D17B68EC
:102FE00002225A71FEF766FFB86018E0FEF762FF32
:102FF0000246BB68D31A022B11D97B681B685B6839
:1030000003F00103012B0AD07B6801225A717B680F
:1030100002229A607B6800221A7101231CE07B68FF
:103020001B685B6803F00103012BDFD17B681B6821
:103030009A687B68DA607B68DA683B681A607B684C
:1030400001225A7104E07B6804229A600123FB7319
:103050007B6800221A71FB7B18461037BD4680BD85
:1030600080B582B000AF78607B680C331946786811
:10307000FFF7A0FF0346002B02D17B68DB6800E06E
:10308000002318460837BD4680BD80B584B000AF28
:1030900078607B68002B01D1012373E07B685B7F44
:1030A000DBB2002B05D17B6800221A777868FEF727
:1030B000E7FB7B6802225A777B681B68DB6803F0BA
:1030C0001003102B55D07B681B68CA225A627B689C
:1030D0001B6853225A62786800F04AFA0346FB7371
:1030E000FB7B002B2CD17B681B689B687A6812687D
:1030F00023F4E00323F0400393607B681B68996826
:103100007B685A687B681B691A437B685B691A4352
:103110007B681B680A439A607B681B687A68D26880
:103120001A617B681B6819697B689B681A047B6855
:103130001B680A431A61786800F051FA0346FB7372
:10314000FB7B002B10D17B681B681A6C7B681B68AB
:1031500022F480221A647B681B68196C7B689A6968
:103160007B681B680A431A647B681B68FF225A62EB
:1031700001E00023FB73FB7B002B02D17B68012263
:103180005A77FB7B18461037BD4680BD90B587B097
:1031900000AFF860B9607A6000237B61FB681B7F39
:1031A000012B01D1022387E0FB6801221A77FB681B
:1031B00002225A777B68002B26D1FB681B689B682C
:1031C00003F04003002B02D1BB680022DA70BB6819
:1031D0001B78184600F028FA03461C04BB685B788D
:1031E000184600F021FA03461B021C43BB689B787B
:1031F000184600F019FA034644EA0302BB68DB787C
:103200009B0513437B6118E0FB681B689B6803F018
:103210004003002B02D1BB680022DA70BB681B7828
:103220001A04BB685B781B021343BA6892781A438E
:10323000BB68DB789B0513437B61FB681B68CA2274
:103240005A62FB681B6853225A62F86800F090F9D2
:103250000346FB74FB7C002B20D1FB681A687B695A
:1032600003F07F3323F0FE431360FB681B689A680A
:10327000FB681B6822F480229A60FB681B689968CF
:10328000BB68DA68BB681B691A43FB681B680A43A2
:103290009A60F86800F0A3F90346FB74FB7C002BEE
:1032A00002D1FB6801225A77FB681B68FF225A6231
:1032B000FB6800221A77FB7C18461C37BD4690BD80
:1032C00080B586B000AFF860B9607A6000237B619A
:1032D000FB681B689A6ABB685A60FB681B681B69BD
:1032E000C3F30E02BB689A60FB681B681B6803F09F
:1032F0007F3323F0FE437B617B691B0CDBB203F061
:103300003F03DAB2BB681A707B691B0ADBB203F0B9
:103310007F03DAB2BB685A707B69DBB203F07F03CC
:10332000DAB2BB689A707B699B0DDBB203F00103D4
:10333000DAB2BB68DA707B68002B1AD1BB681B78E5
:10334000184600F08FF903461A46BB681A70BB682E
:103350005B78184600F086F903461A46BB685A7037
:10336000BB689B78184600F07DF903461A46BB6897
:103370009A70002318461837BD4680BD90B587B0B7
:1033800000AFF860B9607A6000237B61FB681B7F47
:10339000012B01D1022371E0FB6801221A77FB683F
:1033A00002225A777B68002B0ED1BB685B7803F052
:1033B0001003002B08D0BB685B7823F01003DBB24E
:1033C0000A33DAB2BB685A707B68002B1CD1BB6829
:1033D000DB78184600F028F903461C04BB685B78CC
:1033E000184600F021F903461B021C43BB689B787A
:1033F000184600F019F9034644EA0302BB681B783B
:103400005B0313437B610EE0BB68DB781A04BB6887
:103410005B781B021343BA6892781A43BB681B7827
:103420005B0313437B61FB681B68CA225A62FB681B
:103430001B6853225A62F86800F09AF80346FB743E
:10344000FB7C002B0CD1FB681A687B6923F07F435F
:1034500023F0C0035360F86800F0C1F80346FB7422
:10346000FB7C002B02D1FB6801225A77FB681B68AA
:10347000FF225A62FB6800221A77FB7C18461C3731
:10348000BD4690BD80B586B000AFF860B9607A6087
:1034900000237B61FB681B685B6823F07F4323F09C
:1034A000C0037B617B691B0CDAB2BB68DA707B6995
:1034B0001B0ADBB203F01F03DAB2BB685A707B69E8
:1034C000DBB203F03F03DAB2BB689A707B695B0B37
:1034D000DBB203F00703DAB2BB681A707B68002B1B
:1034E0001AD1BB68DB78184600F0BCF803461A46D0
:1034F000BB68DA70BB685B78184600F0B3F8034627
:103500001A46BB685A70BB689B78184600F0AAF848
:1035100003461A46BB689A70002318461837BD4602
:1035200080BD000080B584B000AF78600023FB60F0
:103530007B681B680D4ADA60FEF7BCFCF86009E0A6
:10354000FEF7B8FC0246FB68D31AB3F57A7F01D9BF
:10355000032307E07B681B68DB6803F02003002B74
:10356000EED0002318461037BD4680BD5F7F0100B6
:1035700080B584B000AF78600023BB600023FB738C
:103580007B681B68DB6803F04003002B22D17B685B
:103590001B68DA687B681B6842F08002DA60FEF71D
:1035A00089FCB8600CE0FEF785FC0246BB68D31AC4
:1035B000B3F57A7F04D97B6804225A770123FB7321
:1035C0007B681B68DB6803F04003002B02D1FB7BA8
:1035D000012BE8D1FB7B18461037BD4680BD80B576
:1035E00084B000AF78600023FB737B681B68DA68E7
:1035F0007B681B6822F08002DA607B681B689B682E
:1036000003F02003002B0AD17868FFF78BFF0346F5
:10361000002B04D07B6804225A770123FB73FB7BC9
:1036200018461037BD4680BD80B485B000AF034654
:10363000FB710023FB6005E0FB680133FB60FB7955
:103640000A3BFB71FB79092BF6D8FB68DBB21B0147
:10365000DAB2FB791343DBB218461437BD465DF886
:10366000047B704780B485B000AF0346FB71002334
:10367000FB60FB791B09DBB21A4613469B0013441F
:103680005B00FB60FB68DAB2FB7903F00F03DBB28F
:103690001344DBB218461437BD465DF8047B70470F
:1036A00080B487B000AFF860B9607A6000237B61B6
:1036B000FB681B6850337B61BB689B007A691344CD
:1036C0007B617B697A681A6000BF1C37BD465DF874
:1036D000047B704780B485B000AF78603960002308
:1036E000FB607B681B685033FB603B689B00FA689B
:1036F0001344FB60FB681B6818461437BD465DF831
:10370000047B704780B582B000AF78607B68002B87
:1037100001D101237BE07B685B6A002B08D17B68C9
:103720005B68B3F5827F09D07B680022DA6105E02F
:103730007B6800221A617B6800225A617B68002244
:103740009A627B6893F85130DBB2002B06D17B681C
:10375000002283F850207868FEF7BCF87B680222CC
:1037600083F851207B681B681A687B681B6822F00D
:1037700040021A607B685B6803F482727B689B6816
:1037800003F404431A437B68DB6803F400631A43C1
:103790007B681B6903F002031A437B685B6903F0D3
:1037A00001031A437B689B6903F400731A437B6827
:1037B000DB6903F038031A437B681B6A03F080035C
:1037C00042EA03017B689B6A03F400527B681B6832
:1037D0000A431A607B689B691B0C03F004017B6839
:1037E0005B6A03F010027B681B680A435A607B68BF
:1037F0001B68DA697B681B6822F40062DA617B6807
:1038000000225A657B68012283F851200023184664
:103810000837BD4680BD80B588B000AFF860B9609C
:103820003B601346FB80FEF745FBF861FB887B831A
:10383000FB6893F85130DBB2012B01D002232AE15F
:10384000BB68002B02D0FB88002B01D1012322E1B1
:10385000FB6893F85030012B01D102231BE1FB6878
:10386000012283F85020FB68032283F85120FB6873
:1038700000225A65FB68BA681A63FB68FA889A8660
:10388000FB68FA88DA86FB6800229A63FB680022EC
:103890009A87FB680022DA87FB6800225A64FB687B
:1038A00000221A64FB689B68B3F5004F0FD1FB68D8
:1038B0001B681A68FB681B6822F040021A60FB68EC
:1038C0001B681A68FB681B6842F480421A60FB6838
:1038D0001B681B6803F04003402B07D0FB681B6884
:1038E0001A68FB681B6842F040021A60FB68DB68DC
:1038F000B3F5006F52D1FB685B68002B02D07B8B65
:10390000012B45D1FB681B6B1A88FB681B68DA60CA
:10391000FB681B6B9A1CFB681A63FB68DB8E9BB20F
:10392000013B9AB2FB68DA8632E0FB681B689B6851
:1039300003F00203022B12D1FB681B6B1A88FB6891
:103940001B68DA60FB681B6B9A1CFB681A63FB68D8
:10395000DB8E9BB2013B9AB2FB68DA8618E0FEF779
:10396000A9FA0246FB69D31A3A689A4203D83B681F
:10397000B3F1FF3F02D13B68002B09D1FB68012264
:1039800083F85120FB68002283F85020032382E053
:10399000FB68DB8E9BB2002BC7D153E0FB685B68F2
:1039A000002B02D07B8B012B47D1FB681A6BFB6885
:1039B0001B680C3312781A70FB681B6B5A1CFB686F
:1039C0001A63FB68DB8E9BB2013B9AB2FB68DA8616
:1039D00033E0FB681B689B6803F00203022B13D1E2
:1039E000FB681A6BFB681B680C3312781A70FB6853
:1039F0001B6B5A1CFB681A63FB68DB8E9BB2013B96
:103A00009AB2FB68DA8618E0FEF754FA0246FB69C0
:103A1000D31A3A689A4203D83B68B3F1FF3F02D108
:103A20003B68002B09D1FB68012283F85120FB6819
:103A3000002283F8502003232DE0FB68DB8E9BB22D
:103A4000002BC6D1FA693968F86800F0D9FB034643
:103A5000002B02D0FB6820225A65FB689B68002B74
:103A60000AD100237B61FB681B68DB687B61FB6814
:103A70001B689B687B617B69FB68012283F851208E
:103A8000FB68002283F85020FB685B6D002B01D09F
:103A9000012300E0002318462037BD4680BD80B5D5
:103AA00088B002AFF860B9603B601346FB80FB68EA
:103AB00093F85130DBB2012B01D0022304E1BB6843
:103AC000002B02D0FB88002B01D10123FCE0FB6816
:103AD0005B68B3F5827F12D1FB689B68002B0ED127
:103AE000FB68042283F85120FA883B680093134650
:103AF000BA68B968F86800F0EBF80346E4E0FEF74E
:103B0000D9F97861FB6893F85030012B01D1022379
:103B1000DAE0FB68012283F85020FB68042283F876
:103B20005120FB6800225A65FB68BA689A63FB68FB
:103B3000FA889A87FB68FA88DA87FB6800221A639A
:103B4000FB6800229A86FB680022DA86FB68002266
:103B50001A64FB6800225A64FB689B68B3F5004F47
:103B60000FD1FB681B681A68FB681B6822F04002D3
:103B70001A60FB681B681A68FB681B6822F48042A5
:103B80001A60FB681B681B6803F04003402B07D0DA
:103B9000FB681B681A68FB681B6842F040021A60E9
:103BA000FB68DB68002B70D135E0FB681B689B6805
:103BB00003F00103012B15D1FB681B6803F10C0214
:103BC000FB689B6B1278D2B21A70FB689B6B5A1C15
:103BD000FB689A63FB68DB8F9BB2013B9AB2FB6880
:103BE000DA8718E0FEF766F902467B69D31A3A686D
:103BF0009A4203D83B68B3F1FF3F02D13B68002BE8
:103C000009D1FB68012283F85120FB68002283F868
:103C10005020032358E0FB68DB8F9BB2002BC4D1FC
:103C200038E0FB681B689B6803F00103012B13D18C
:103C3000FB681B68DA68FB689B6B92B21A80FB68B2
:103C40009B6B9A1CFB689A63FB68DB8F9BB2013B02
:103C50009AB2FB68DA8718E0FEF72CF902467B6916
:103C6000D31A3A689A4203D83B68B3F1FF3F02D1B6
:103C70003B68002B09D1FB68012283F85120FB68C7
:103C8000002283F8502003231EE0FB68DB8F9BB2E9
:103C9000002BC6D17A693968F86800F04BFA034600
:103CA000002B02D0FB6820225A65FB68012283F8B2
:103CB0005120FB68002283F85020FB685B6D002BCD
:103CC00001D0012300E0002318461837BD4680BD0F
:103CD00080B58AB000AFF860B9607A607B8001235C
:103CE0007B62FEF7E7F83862FB6893F85130FB77A8
:103CF000FB685B68BB617B88FB82FB7F012B0CD080
:103D0000BB69B3F5827F06D1FB689B68002B02D1AB
:103D1000FB7F042B01D002237FE1BB68002B05D081
:103D20007B68002B02D07B88002B01D1012374E13A
:103D3000FB6893F85030012B01D102236DE1FB6841
:103D4000012283F85020FB6893F85130DBB2042B3A
:103D500003D0FB68052283F85120FB6800225A65D6
:103D6000FB687A689A63FB687A88DA87FB687A88E6
:103D70009A87FB68BA681A63FB687A88DA86FB68F8
:103D80007A889A86FB6800221A64FB6800225A64CB
:103D9000FB681B681B6803F04003402B07D0FB68DF
:103DA0001B681A68FB681B6842F040021A60FB68D7
:103DB000DB68B3F5006F7ED1FB685B68002B02D037
:103DC000FB8A012B6CD1FB681B6B1A88FB681B6894
:103DD000DA60FB681B6B9A1CFB681A63FB68DB8E5E
:103DE0009BB2013B9AB2FB68DA8659E0FB681B681C
:103DF0009B6803F00203022B1BD1FB68DB8E9BB296
:103E0000002B16D07B6A012B13D1FB681B6B1A8821
:103E1000FB681B68DA60FB681B6B9A1CFB681A6303
:103E2000FB68DB8E9BB2013B9AB2FB68DA8600230B
:103E30007B62FB681B689B6803F00103012B19D1AF
:103E4000FB68DB8F9BB2002B14D0FB681B68DA6821
:103E5000FB689B6B92B21A80FB689B6B9A1CFB6899
:103E60009A63FB68DB8F9BB2013B9AB2FB68DA87EF
:103E700001237B62FEF71EF802463B6AD31A3A6BB7
:103E80009A420DD83B6BB3F1FF3F09D0FB6801228A
:103E900083F85120FB68002283F850200323BCE004
:103EA000FB68DB8E9BB2002BA0D1FB68DB8F9BB243
:103EB000002B9BD182E0FB685B68002B02D0FB8A61
:103EC000012B71D1FB681A6BFB681B680C331278ED
:103ED0001A70FB681B6B5A1CFB681A63FB68DB8E4D
:103EE0009BB2013B9AB2FB68DA865DE0FB681B6817
:103EF0009B6803F00203022B1CD1FB68DB8E9BB294
:103F0000002B17D07B6A012B14D1FB681A6BFB685E
:103F10001B680C3312781A70FB681B6B5A1CFB6809
:103F20001A63FB68DB8E9BB2013B9AB2FB68DA86B0
:103F300000237B62FB681B689B6803F00103012B75
:103F400019D1FB68DB8F9BB2002B14D0FB681B6878
:103F5000DA68FB689B6BD2B21A70FB689B6B5A1CC9
:103F6000FB689A63FB68DB8F9BB2013B9AB2FB68EC
:103F7000DA8701237B62FDF79DFF02463B6AD31A75
:103F80003A6B9A4203D83B6BB3F1FF3F02D13B6BD4
:103F9000002B09D1FB68012283F85120FB68002225
:103FA00083F85020032338E0FB68DB8E9BB2002BA4
:103FB0009CD1FB68DB8F9BB2002B97D13A6A396B9F
:103FC000F86800F01DF90346002B08D0FB6820229A
:103FD0005A65FB68002283F8502001231DE0FB682E
:103FE0009B68002B0AD100233B61FB681B68DB68E0
:103FF0003B61FB681B689B683B613B69FB68012276
:1040000083F85120FB68002283F85020FB685B6D29
:10401000002B01D0012300E0002318462837BD46BD
:1040200080BD000080B588B000AFF860B9603B602B
:104030001346FB71FDF73EFF0246BB6A9B1A3A68C6
:104040001344FB61FDF736FFB861394B1B685B0118
:104050001B0DFA6902FB03F37B6155E03B68B3F18A
:10406000FF3F51D0FDF726FF0246BB69D31AFA691C
:104070009A4202D9FB69002B3DD1FB681B685A6844
:10408000FB681B6822F0E0025A60FB685B68B3F5CE
:10409000827F11D1FB689B68B3F5004F04D0FB68A9
:1040A0009B68B3F5806F07D1FB681B681A68FB68D3
:1040B0001B6822F040021A60FB689B6AB3F5005F40
:1040C0000FD1FB681B681A68FB681B6822F400525A
:1040D0001A60FB681B681A68FB681B6842F4005290
:1040E0001A60FB68012283F85120FB68002283F8E4
:1040F0005020032318E07B69002B02D10023FB61D1
:1041000002E07B69013B7B61FB681B689A68BB68C6
:104110001340BA689A420CBF01230023DBB21A464F
:10412000FB799A429AD1002318462037BD4680BDBC
:104130000400002080B586B002AFF860B9607A60F4
:10414000FB685B68B3F5827F11D1FB689B68B3F5B0
:10415000004F04D0FB689B68B3F5806F07D1FB6804
:104160001B681A68FB681B6822F040021A60FB6833
:104170005B68B3F5827F2AD1FB689B68B3F5806FDB
:1041800012D07B680093BB6800228021F868FFF79B
:1041900049FF0346002B2DD0FB685B6D43F02002E6
:1041A000FB685A65032326E07B680093BB68002206
:1041B0000121F868FFF736FF0346002B1AD0FB6891
:1041C0005B6D43F02002FB685A65032313E07B68B4
:1041D0000093BB6800220121F868FFF723FF034624
:1041E000002B07D0FB685B6D43F02002FB685A652B
:1041F000032300E0002318461037BD4680BD0000B1
:1042000080B588B002AFF860B9607A607B680093CF
:10421000BB6801220221F868FFF704FF0346002B68
:1042200007D0FB685B6D43F02002FB685A650323EF
:1042300032E01B4B1B681B4AA2FB03235B0D4FF4B0
:104240007A7202FB03F37B61FB685B68B3F5827FE4
:1042500012D17B680093BB6800228021F868FFF7C9
:10426000E1FE0346002B16D0FB685B6D43F0200295
:10427000FB685A6503230FE07B69002B0AD07B693A
:10428000013B7B61FB681B689B6803F08003802B0C
:10429000F2D000E000BF002318461837BD4680BDAD
:1042A00004000020819F5E1680B584B000AFF860E6
:1042B000B9607A60FB68002B01D1012338E0FB680C
:1042C00093F84930DBB2002B06D1FB68002283F85B
:1042D0004820F868FDF72CFCFB681A68FB68083377
:1042E0001946104601F080F8FB681868FB689B6867
:1042F0001A46B96801F0E2F8FB685868FB689A68EA
:10430000FB681B6B796801F007F9FB681B68FA68AA
:10431000926853F82210FB681B68FA68926841F0B3
:10432000010143F82210FB68012283F84920002391
:1043300018461037BD4680BD80B582B000AF7860AA
:104340007B68002B01D1012341E07B6893F83D306D
:10435000DBB2002B06D17B68002283F83C20786812
:10436000FDF722FB7B68022283F83D207B681A68F8
:104370007B6804331946104600F090FC7B680122EC
:1043800083F846207B68012283F83E207B68012267
:1043900083F83F207B68012283F840207B6801225C
:1043A00083F841207B68012283F842207B68012248
:1043B00083F843207B68012283F844207B68012234
:1043C00083F845207B68012283F83D2000231846AE
:1043D0000837BD4680BD000080B485B000AF78606E
:1043E0007B6893F83D30DBB2012B01D001234EE016
:1043F0007B68022283F83D207B681B68DA687B6853
:104400001B6842F00102DA607B681B68234A934212
:1044100022D07B681B68B3F1804F1DD07B681B687E
:104420001F4A934218D07B681B681E4A934213D0E0
:104430007B681B681C4A93420ED07B681B681B4A32
:10444000934209D07B681B68194A934204D07B6869
:104450001B68184A934211D17B681B689B6803F064
:104460000703FB60FB68062B10D07B681B681A688B
:104470007B681B6842F001021A6007E07B681B68DA
:104480001A687B681B6842F001021A600023184614
:104490001437BD465DF8047B704700BF0000014043
:1044A0000004004000080040000C004000040140EF
:1044B000004001400018004080B483B000AF786035
:1044C0007B681B68DA687B681B6822F00102DA608F
:1044D0007B681B681A6A41F211131340002B0FD13D
:1044E0007B681B681A6A40F244431340002B07D1D3
:1044F0007B681B681A687B681B6822F001021A60DF
:104500007B68012283F83D20002318460C37BD4606
:104510005DF8047B704780B582B000AF78607B683F
:10452000002B01D1012341E07B6893F83D30DBB2E1
:10453000002B06D17B68002283F83C207868FDF7C9
:1045400011FA7B68022283F83D207B681A687B6839
:1045500004331946104600F0A1FB7B68012283F862
:1045600046207B68012283F83E207B68012283F885
:104570003F207B68012283F840207B68012283F87A
:1045800041207B68012283F842207B68012283F866
:1045900043207B68012283F844207B68012283F852
:1045A00045207B68012283F83D2000231846083708
:1045B000BD4680BD80B584B000AF786039603B688F
:1045C000002B09D17B6893F83E30DBB2012B14BF7E
:1045D00001230023DBB222E03B68042B09D17B6876
:1045E00093F83F30DBB2012B14BF01230023DBB271
:1045F00015E03B68082B09D17B6893F84030DBB2AB
:10460000012B14BF01230023DBB208E07B6893F881
:104610004130DBB2012B14BF01230023DBB2002B9E
:1046200001D001237CE03B68002B04D17B6802228F
:1046300083F83E2013E03B68042B04D17B68022200
:1046400083F83F200BE03B68082B04D17B680222F3
:1046500083F8402003E07B68022283F841207B68D6
:104660001B6801223968184600F008FE7B681B6849
:104670002D4A934204D07B681B682C4A934201D197
:10468000012300E00023002B07D07B681B685A6CD5
:104690007B681B6842F400425A647B681B68224AAC
:1046A000934222D07B681B68B3F1804F1DD07B689A
:1046B0001B681F4A934218D07B681B681D4A9342AF
:1046C00013D07B681B681C4A93420ED07B681B6822
:1046D000164A934209D07B681B68184A934204D05B
:1046E0007B681B68164A934211D17B681B689B68E4
:1046F00003F00703FB60FB68062B10D07B681B6888
:104700001A687B681B6842F001021A6007E07B6848
:104710001B681A687B681B6842F001021A6000235C
:1047200018461037BD4680BD00000140000401401E
:104730000004004000080040000C00400040014020
:104740000018004080B584B000AF78607B681B68BB
:10475000DB68FB607B681B681B69BB60BB6803F0A0
:104760000203002B20D0FB6803F00203002B1BD0B8
:104770007B681B686FF002021A617B6801221A775E
:104780007B681B689B6903F00303002B03D07868E8
:1047900000F065FA05E0786800F057FA786800F0F4
:1047A00068FA7B6800221A77BB6803F00403002BC9
:1047B00020D0FB6803F00403002B1BD07B681B6830
:1047C0006FF004021A617B6802221A777B681B680B
:1047D0009B6903F44073002B03D0786800F03FFA24
:1047E00005E0786800F031FA786800F042FA7B68FA
:1047F00000221A77BB6803F00803002B20D0FB6867
:1048000003F00803002B1BD07B681B686FF00802C5
:104810001A617B6804221A777B681B68DB6903F0E6
:104820000303002B03D0786800F019FA05E07868DC
:1048300000F00BFA786800F01CFA7B6800221A7707
:10484000BB6803F01003002B20D0FB6803F01003BB
:10485000002B1BD07B681B686FF010021A617B680D
:1048600008221A777B681B68DB6903F44073002B0E
:1048700003D0786800F0F3F905E0786800F0E5F916
:10488000786800F0F6F97B6800221A77BB6803F0BD
:104890000103002B0CD0FB6803F00103002B07D0B1
:1048A0007B681B686FF001021A61786800F0C3F939
:1048B000BB6803F08003002B0CD0FB6803F080037F
:1048C000002B07D07B681B686FF080021A61786844
:1048D00000F080FDBB6803F04003002B0CD0FB68A8
:1048E00003F04003002B07D07B681B686FF0400289
:1048F0001A61786800F0C7F9BB6803F02003002B49
:104900000CD0FB6803F02003002B07D07B681B68EA
:104910006FF020021A61786800F052FD00BF103776
:10492000BD4680BD80B586B000AFF860B9607A60E2
:104930000023FB75FB6893F83C30012B01D1022367
:10494000AEE0FB68012283F83C207B680C2B00F270
:104950009F8001A252F823F08D490008914A000877
:10496000914A0008914A0008CD490008914A000880
:10497000914A0008914A00080F4A0008914A00082D
:10498000914A0008914A00084F4A0008FB681B68DA
:10499000B968184600F028FAFB681B689A69FB683A
:1049A0001B6842F008029A61FB681B689A69FB6801
:1049B0001B6822F004029A61FB681B689969BB6856
:1049C0001A69FB681B680A439A6164E0FB681B680C
:1049D000B968184600F078FAFB681B689A69FB68AA
:1049E0001B6842F400629A61FB681B689A69FB6865
:1049F0001B6822F480629A61FB681B689969BB6836
:104A00001B691A02FB681B680A439A6143E0FB6852
:104A10001B68B968184600F0CDFAFB681B68DA69B4
:104A2000FB681B6842F00802DA61FB681B68DA6900
:104A3000FB681B6822F00402DA61FB681B68D96915
:104A4000BB681A69FB681B680A43DA6123E0FB68EC
:104A50001B68B968184600F021FBFB681B68DA691F
:104A6000FB681B6842F40062DA61FB681B68DA6964
:104A7000FB681B6822F48062DA61FB681B68D969F5
:104A8000BB681B691A02FB681B680A43DA6102E013
:104A90000123FB7500BFFB68002283F83C20FB7DEF
:104AA00018461837BD4680BD80B584B000AF786029
:104AB00039600023FB737B6893F83C30012B01D1F4
:104AC0000223B4E07B68012283F83C207B68022249
:104AD00083F83D207B681B689B68BB60BB6823F044
:104AE0007703BB60BB6823F47F43BB607B681B68B4
:104AF000BA689A603B681B68B3F5005F3ED0B3F5B7
:104B0000005F00F28780B3F5805F00F08680B3F528
:104B1000805F7FD8702B1AD0702B7BD8602B50D041
:104B2000602B77D8502B3CD0502B73D8402B58D0CB
:104B3000402B6FD8302B64D0302B6BD8202B60D01B
:104B4000202B67D8002B5CD0102B5AD062E07B68FA
:104B500018683B6899683B685A683B68DB6800F0F6
:104B60006DFB7B681B689B68BB60BB6843F0770389
:104B7000BB607B681B68BA689A604FE07B68186806
:104B80003B6899683B685A683B68DB6800F056FBF5
:104B90007B681B689A687B681B6842F480429A6055
:104BA0003CE07B6818683B6859683B68DB681A46DC
:104BB00000F0CAFA7B681B685021184600F023FBFE
:104BC0002CE07B6818683B6859683B68DB681A46CC
:104BD00000F0E9FA7B681B686021184600F013FBBF
:104BE0001CE07B6818683B6859683B68DB681A46BC
:104BF00000F0AAFA7B681B684021184600F003FB0E
:104C00000CE07B681A683B681B681946104600F088
:104C1000FAFA03E00123FB7300E000BF7B68012286
:104C200083F83D207B68002283F83C20FB7B1846FC
:104C30001037BD4680BD80B483B000AF786000BF40
:104C40000C37BD465DF8047B704780B483B000AF7D
:104C5000786000BF0C37BD465DF8047B704780B4B8
:104C600083B000AF786000BF0C37BD465DF8047BB1
:104C7000704780B483B000AF786000BF0C37BD468A
:104C80005DF8047B704780B483B000AF786000BFEC
:104C90000C37BD465DF8047B7047000080B485B0DA
:104CA00000AF786039607B681B68FB607B68434AB3
:104CB000934213D07B68B3F1804F0FD07B68404A9A
:104CC00093420BD07B683F4A934207D07B683E4AB1
:104CD000934203D07B683D4A934208D1FB6823F09E
:104CE0007003FB603B685B68FA681343FB607B689A
:104CF000324A93422BD07B68B3F1804F27D07B6838
:104D00002F4A934223D07B682E4A93421FD07B6860
:104D10002D4A93421BD07B682C4A934217D07B6864
:104D20002B4A934213D07B682A4A93420FD07B6868
:104D3000294A93420BD07B68284A934207D07B686C
:104D4000274A934203D07B68264A934208D1FB68E6
:104D500023F44073FB603B68DB68FA681343FB6035
:104D6000FB6823F080023B685B691343FB603B6890
:104D70009A687B68DA623B681A687B689A627B682B
:104D80000E4A934203D07B68104A934203D13B689A
:104D90001A697B681A637B681B6843F004027B68AE
:104DA0001A607B6801225A617B68FA681A6000BF4A
:104DB0001437BD465DF8047B704700BF000001401A
:104DC0000004004000080040000C004000040140C6
:104DD00000400140004401400048014000180040EC
:104DE000001C00400020004080B487B000AF786015
:104DF00039607B681B6A7B617B681B6A23F0010258
:104E00007B681A627B685B683B617B689B69FB60BF
:104E1000FB6823F07003FB60FB6823F00303FB6077
:104E20003B681B68FA681343FB607B6923F002034D
:104E30007B613B689B687A6913437B617B68204A8E
:104E4000934203D07B681F4A93420CD17B6923F0C5
:104E500008037B613B68DB687A6913437B617B698C
:104E600023F004037B617B68154A934203D07B687F
:104E7000144A934211D13B6923F480733B613B692F
:104E800023F400733B613B685B693A6913433B6100
:104E90003B689B693A6913433B617B683A695A6096
:104EA0007B68FA689A613B685A687B685A637B68DA
:104EB0007A691A6200BF1C37BD465DF8047B7047F3
:104EC000000001400004014080B487B000AF78606A
:104ED00039607B681B6A7B617B681B6A23F0100268
:104EE0007B681A627B685B683B617B689B69FB60DF
:104EF000FB6823F4E043FB60FB6823F44073FB6032
:104F00003B681B681B02FA681343FB607B6923F054
:104F100020037B613B689B681B017A6913437B61BB
:104F20007B68224A934203D07B68214A93420DD189
:104F30007B6923F080037B613B68DB681B017A6936
:104F400013437B617B6923F040037B617B68174AD5
:104F5000934203D07B68164A934213D13B6923F4F2
:104F600080633B613B6923F400633B613B685B69A1
:104F70009B003A6913433B613B689B699B003A691C
:104F800013433B617B683A695A607B68FA689A61AF
:104F90003B685A687B689A637B687A691A6200BFCB
:104FA0001C37BD465DF8047B704700BF0000014020
:104FB0000004014080B487B000AF786039607B683E
:104FC0001B6A7B617B681B6A23F480727B681A62B0
:104FD0007B685B683B617B68DB69FB60FB6823F097
:104FE0007003FB60FB6823F00303FB603B681B68F6
:104FF000FA681343FB607B6923F400737B613B68B1
:105000009B681B027A6913437B617B68214A934248
:1050100003D07B68204A93420DD17B6923F400635F
:105020007B613B68DB681B027A6913437B617B69A8
:1050300023F480637B617B68164A934203D07B68CC
:10504000154A934213D13B6923F480533B613B697A
:1050500023F400533B613B685B691B013A691343CE
:105060003B613B689B691B013A6913433B617B6869
:105070003A695A607B68FA68DA613B685A687B680B
:10508000DA637B687A691A6200BF1C37BD465DF837
:10509000047B7047000001400004014080B487B0E9
:1050A00000AF786039607B681B6A3B617B681B6A74
:1050B00023F480527B681A627B685B687B617B6843
:1050C000DB69FB60FB6823F4E043FB60FB6823F4CF
:1050D0004073FB603B681B681B02FA681343FB606C
:1050E0003B6923F400533B613B689B681B033A69AF
:1050F00013433B617B68124A934203D07B68114A99
:10510000934209D17B6923F480437B613B685B69EF
:105110009B017A6913437B617B687A695A607B687B
:10512000FA68DA613B685A687B681A647B683A6996
:105130001A6200BF1C37BD465DF8047B704700BF94
:10514000000001400004014080B487B000AFF86067
:10515000B9607A60FB681B6A7B61FB681B6A23F09D
:105160000102FB681A62FB689B693B613B6923F0A3
:10517000F0033B617B681B013A6913433B617B6928
:1051800023F00A037B617A69BB6813437B61FB6888
:105190003A699A61FB687A691A6200BF1C37BD469A
:1051A0005DF8047B704780B487B000AFF860B960E9
:1051B0007A60FB681B6A7B61FB681B6A23F0100244
:1051C000FB681A62FB689B693B613B6923F470438F
:1051D0003B617B681B033A6913433B617B6923F0A6
:1051E000A0037B61BB681B017A6913437B61FB6889
:1051F0003A699A61FB687A691A6200BF1C37BD463A
:105200005DF8047B704780B485B000AF786039608A
:105210007B689B68FB60FB6823F07003FB603A6867
:10522000FB68134343F00703FB607B68FA689A60EE
:1052300000BF1437BD465DF8047B704780B487B06B
:1052400000AFF860B9607A603B60FB689B687B6187
:105250007B6923F47F437B613B681A027B681A43B6
:10526000BB6813437A6913437B61FB687A699A6070
:1052700000BF1C37BD465DF8047B704780B487B023
:1052800000AFF860B9607A60BB6803F01F030122C9
:1052900002FA03F37B61FB681A6A7B69DB431A40FD
:1052A000FB681A62FB681A6ABB6803F01F0379681F
:1052B00001FA03F31A43FB681A6200BF1C37BD46AC
:1052C0005DF8047B7047000080B485B000AF786063
:1052D00039607B6893F83C30012B01D102235AE0FE
:1052E0007B68012283F83C207B68022283F83D2002
:1052F0007B681B685B68FB607B681B689B68BB60A6
:10530000FB6823F07003FB603B681B68FA6813437B
:10531000FB607B681B68FA685A607B681B68214ADF
:10532000934222D07B681B68B3F1804F1DD07B680D
:105330001B681D4A934218D07B681B681B4A934226
:1053400013D07B681B681A4A93420ED07B681B6897
:10535000184A934209D07B681B68174A934204D0CD
:105360007B681B68154A93420CD1BB6823F080030D
:10537000BB603B685B68BA681343BB607B681B68B3
:10538000BA689A607B68012283F83D207B6800221E
:1053900083F83C20002318461437BD465DF8047B93
:1053A000704700BF000001400004004000080040BA
:1053B000000C004000040140004001400018004083
:1053C00080B483B000AF786000BF0C37BD465DF895
:1053D000047B704780B483B000AF786000BF0C37A7
:1053E000BD465DF8047B704780B487B000AF78603D
:1053F00039603B681A687B6853F822303A68126853
:1054000023F001017B6843F822103B689B68082B5E
:1054100002D140237B6101E000237B613B685A6835
:105420007B691A433B689B681A433B68DB681A43F5
:105430003B681B691A433B685B691A433B68DB693D
:105440001A433B681B6A1A433B685B6A1A433B6812
:105450009B6A1A433B68DB6A1A433B681B6B134326
:105460003B613B689B693A6913433B613B68DB6B7B
:105470003A6913433B61104BFB60FB6843F4806364
:10548000FB60FB6843F4E023FB603B681A687B68C1
:1054900053F82220FB68DB4302EA03013B681A68E9
:1054A0003B6919437B6843F82210002318461C37D8
:1054B000BD465DF8047B70477FFB080080B485B073
:1054C00000AFF860B9607A60BB681A68BB685B6857
:1054D0001B011A43BB689B681B021A43BB68DB684D
:1054E0001B041A43BB681B69013B1B051A43BB68BD
:1054F0005B69023B1B0642EA0301BB689B697A6851
:1055000001321943FB6843F8221000231846143770
:10551000BD465DF8047B704780B485B000AFF8608D
:10552000B9607A603B603B68B3F5804F1DD1FB6882
:105530007A6853F82220134B1340BA681168BA688E
:10554000526812011143BA68926812021143BA6894
:1055500092691143BA68D26812040A4343EA02010D
:10556000FB687A6843F8221005E0FB687A686FF000
:10557000704143F82210002318461437BD465DF8E9
:10558000047B70470000F0CF90B585B000AF0446B3
:10559000084611461A462346FB800346BB800B464D
:1055A000FB7013463B800023FB81FB78BB81FB78BB
:1055B0009BB25B009BB2C3F103039BB27B8187E08C
:1055C000FA89FB88134498B2BB89BA88D31A9BB274
:1055D0003A8819460CF0DEF8BA89FB88134498B271
:1055E000FB89BA88D31A9BB23A8819460CF0D2F8D4
:1055F000BA89FB88134498B2FA89BB8813449BB2DA
:105600003A8819460CF0C6F8FA89FB88134498B218
:10561000BA89BB8813449BB23A8819460CF0BAF891
:10562000FB89FA88D31A98B2BA89BB8813449BB213
:105630003A8819460CF0AEF8BB89FA88D31A98B2AA
:10564000FA89BB8813449BB23A8819460CF0A2F839
:10565000FB89FA88D31A98B2BB89BA88D31A9BB24D
:105660003A8819460CF096F8BB89FA88D31A98B292
:10567000FB89BA88D31A9BB23A8819460CF08AF88B
:10568000B7F90E309BB201339BB2FB81B7F90A30F8
:10569000002B09DAFB899B009AB27B8913449BB2E9
:1056A00006339BB27B8113E0B7F90E20B7F90C30BB
:1056B000D31A9BB29B009AB27B8913449BB20A33E4
:1056C0009BB27B81B7F90C309BB2013B9BB2BB8193
:1056D000B7F90E20B7F90C309A427FF771AF00BFCF
:1056E00000BF1437BD4690BD90B585B000AF0446ED
:1056F000084611461A462346FB800346BB800B46EC
:105700007B8013463B80FA887B8813449BB2013B25
:105710009CB2BA887B8813449BB2013B9BB2B98888
:10572000F88822460BF0F4FF0023FB6005E0094AED
:105730003B881380FB680133FB607B887A8802FB1F
:1057400003F31A46FB689342F1D300BF00BF14373E
:10575000BD4690BD0000086090B587B000AF04461C
:10576000084611461A462346FB800346BB800B467B
:105770007B8013463B80FA887B889A4204D2FB8860
:105780007B827B883B8203E07B887B82FB883B8239
:10579000BA883B889A4204D2BB88FB813B88BB8194
:1057A00003E03B88FB81BB88BB81BB893A8AF989CE
:1057B000788A0BF0ADFF00237B6105E00C4A3B8D3E
:1057C00013807B6901337B613B8A5A1C7B8AD31A25
:1057D000BA89511CFA898A1A02FB03F31A467B69BB
:1057E0009342EBD900BF00BF1C37BD4690BD00BF40
:1057F0000000086080B500AF0348FDF731FC0346A8
:105800009BB2184680BD00BF4C01002090B58DB002
:1058100002AF0446084611461A462346FB8003465B
:10582000BB800B467B8013463B807A883B8F9A4235
:1058300009D13C8F3A887988B888FB880093234641
:10584000FFF78AFF81E0BA883B889A4209D13C8FF2
:105850003A887988B888FB8800932346FFF77CFF55
:1058600073E03A8F7B88D31A83EAE372A2EBE37288
:105870003988BB88CB1A002BB8BF5B429A42CCBF99
:1058800001230023DBB2FB61FB69002B0BD0BB883B
:105890007B837B88BB807B8B7B803B883B833B8F80
:1058A0003B803B8B3B87BA883B889A420BD9BB88AD
:1058B000FB823B88BB80FB8A3B807B88BB823B8F23
:1058C0007B80BB8A3B873A88BB88D31A3B613A8F7F
:1058D0007B88D31A002BB8BF5B42FB603B69DA0FB1
:1058E00013445B107B627A883B8F9A4202D2012379
:1058F0003B6226E04FF0FF333B6222E0FB69002B66
:1059000006D0FA88B9887B8818460BF043FF05E07B
:10591000FA887988BB8818460BF03CFF7A6AFB68E6
:10592000D31A7B627B6A002B08DA3B6A9AB27B88C7
:1059300013447B807A6A3B6913447B62BB880133E2
:10594000BB80BA883B889A42D8D92C37BD4690BDD7
:1059500090B585B002AF0446084611461A46234664
:10596000FB800346BB800B467B8013463B803C8814
:105970007A88B988F8887B8800932346FFF746FF2A
:105980003C883A8BB988F8883B8B00932346FFF715
:105990003DFFBC887A88B988F8883B8B0093234602
:1059A000FFF734FF3C887A883988F8883B8B00936E
:1059B0002346FFF72BFF00BF0C37BD4690BD90B5C7
:1059C00085B002AF0446084611461A462346FB80BE
:1059D0000346BB800B467B8013463B80BA887B889E
:1059E000D31A9BB219B27B885B009BB201339BB286
:1059F0001AB23B88B7F9060000F0DFF8B7F90220C9
:105A0000B7F90410B7F906003B880193002300930F
:105A1000032300F004F800BF0C37BD4690BD90B5DD
:105A200087B000AF0446084611461A462346FB805D
:105A30000346BB800B467B8013467B707B88C3F19B
:105A400001039BB2FB820123BB827B881A46D203EF
:105A5000D31A5B009BB27B8200233B827B88FB8155
:105A60003B8ABB81FB897B81B7F928309BB201332C
:105A70009BB23B8595E0B7F91630002B0EDBB7F9EA
:105A80000E309BB2013B9BB2FB817B8A02339BB2FF
:105A90007B82FA8A7B8A13449BB2FB82B7F910306F
:105AA0009BB201339BB23B82BB8A02339BB2BB8267
:105AB000FA8ABB8A13449BB2FB82B7F90E20B7F96E
:105AC00010309A4231DB7B7803F00103002B13D0B6
:105AD000FA883B8A13449BB218B2BA88FB89D31A5E
